:100000000C946A020C9487020C9487020C94870269
:100010000C9487020C9487020C9487020C9487023C
:100020000C9487020C9487020C9487020C9487022C
:100030000C9487020C9487020C9487020C9487021C
:100040000C9487020C9487020C9487020C9487020C
:100050000C9487020C9487020C9487020C948702FC
:100060000C9487020C9487020A0D52656164435315
:100070004428292C2073645F776169745F666F720E
:100080005F646174612072657475726E73202530CF
:1000900032782E002025730A0D00253032582000BA
:1000A0002025730A0D253034583A20000A0D436F7D
:1000B0006E74656E7473206F6620626C6F636B2064
:1000C0006275666665723A0020436172642043433C
:1000D000206661696C65642100204361726420457B
:1000E0004343206661696C65642100204164647249
:1000F000657373206973206F7574206F6620726159
:100100006E676521002043617264206973206C6F03
:10011000636B656421000A0D446174652065727229
:100120006F723A006C6F636B656400756E6C6F6321
:100130006B6564000D0A50617373776F726420738E
:1001400074617475733A20000D0A436865636B69C6
:100150006E672074656D702D6C6F636B20737461B6
:1001600074652E2E2E000D0A436865636B696E67F9
:10017000205057442073746174652E2E2E00646FD6
:100180006E652E006661696C656421202043617292
:1001900064206973207374696C6C20756E6C6F6376
:1001A0006B65642E000D0A547279696E6720746F56
:1001B000206C6F636B20636172642E2E2E00646F5F
:1001C0006E652E006661696C656421202043617252
:1001D00064206973207374696C6C206C6F636B6549
:1001E000642E000D0A547279696E6720746F207551
:1001F0006E6C6F636B20636172642E2E2E007468C8
:10020000652063617264206973206E6F74206C6F67
:10021000636B656400646F6E652E006661696C6572
:100220006421202043617264206973207374696CB7
:100230006C206C6F636B65642E00706C6561736518
:1002400020776169742E2E2E00706C6561736520B5
:10025000776169742E2E2E000D0A547279696E67CB
:1002600020746F204552415345205344204341524E
:10027000442E2E2E000D0A5465737420726561643D
:10028000206F6620626C6F636B2030206F6E20538E
:100290004420636172642E2E2E006661696C656471
:1002A0003B20756E61626C6520746F2072656164BD
:1002B000204353442E006661696C65643B2072657F
:1002C00073706F6E7365207761732025642E0066EE
:1002D00061696C65643B2063616E6E6F742072654A
:1002E00061642043534420746F20636F6E666972AB
:1002F0006D2E00646F6E652E000D0A436C65617291
:10030000696E672074656D706F72617279206C6FB1
:10031000636B206F6E20534420636172642E2E2E17
:10032000006661696C65643B20756E61626C652076
:10033000746F2072656164204353442E00666169C6
:100340006C65643B20726573706F6E7365207761B6
:10035000732025642E006661696C65643B206361CF
:100360006E6E6F7420726561642043534420746F15
:1003700020636F6E6669726D2E00646F6E652E006D
:100380000D0A53657474696E672074656D706F72C1
:10039000617279206C6F636B206F6E205344206311
:1003A0006172642E2E2E000D0A556E61626C6520FE
:1003B000746F2072656164204353442E00253032EF
:1003C0005820000D0A434944203D20002530325872
:1003D00020000D0A435344203D2000253032582090
:1003E000000D0A4F4352203D20000D0A4361726404
:1003F0002074797065202564000A0D0A0D43616E32
:100400006E6F7420696E697469616C697A652063C6
:100410006172642E20204D616B65207375726520BA
:10042000746865206361726420697320706C7567FD
:1004300067656420696E2070726F7065726C792ECA
:100440000072202D20526561640D0A0045202D2088
:1004500045726173650D0A0050202D205061737341
:10046000776F7264204C6F636B0D0A0070202D2033
:1004700050617373776F726420556E6C6F636B0D90
:100480000A006C202D205772697465204C6F636BD5
:100490000D0A0075202D20577269746520556E6C09
:1004A0006F636B0D0A003F202D20534420696E6658
:1004B0006F0D0A000D0A53444C6F636B6572322E48
:1004C000310D0A00466F7572746820416D656E6467
:1004D0006D656E7411241FBECFEFD8E0DEBFCDBFB7
:1004E00011E0A0E0B1E0E2E8F8E102C005900D9271
:1004F000AE31B107D9F724E0AEE1B1E001C01D9201
:10050000A336B207E1F70E9488040C943F0C0C94C8
:1005100000002A9A08958EBD0DB407FEFDCF8EB55A
:100520000895E4ECF4E0A5E2B3E084918D93319674
:1005300083E0A533B807C9F780E180933C040895B0
:10054000EF92FF920F931F93CF93DF93C82F142F37
:10055000052FF62EE72E87FF0BC040E050E0BA01D2
:1005600087E70E94A002D82F823008F03FC0CF77E3
:100570000E9489028FEF0E948B022A988FEF0E94BF
:100580008B028C2F80640E948B028E2D0E948B0226
:100590008F2D0E948B02802F0E948B02812F0E9440
:1005A0008B0285E9C03421F087E8C83409F081E086
:1005B0000E948B021AE08FEF0E948B02D82F87FFD8
:1005C00002C01150C1F7C13589F0CD3479F088EB04
:1005D0008C0F833058F08C2F8F7E8A3639F0CB35D4
:1005E00029F00E9489028FEF0E948B028D2FDF91EC
:1005F000CF911F910F91FF90EF900895CF9341E01D
:1006000050E060E070E080E50E94A00240E050E031
:10061000BA018AE60E94A002C82F811109C08EEF9C
:100620000E948B0288E00E948B028C2FCF9108954C
:10063000CFEFFBCFCF93DF9340E050E0BA018DE4E2
:100640000E94A002C5E3D3E088838FEF0E948B0253
:1006500089838FEF0E948B0280E0DF91CF91089514
:10066000CF93DF93C4E6D0E08FEF0E948B028F3FE1
:1006700011F42197C9F7DF91CF91089520E297FFF8
:1006800011C05A9A3FEF40E752E03150404050408D
:10069000E1F700C00000660F771F881F991F2150E7
:1006A00071F706C05A98611571058105910551F7DA
:1006B00008955A985B9880914B0484FF02C05A9A1F
:1006C00008955B9A0895CF93DF93CFEFDFEF8FEF1D
:1006D0000E948B02811106C02197C9F78FEFDF912D
:1006E000CF91089580E0FBCF0F931F93CF9340E00D
:1006F00050E0BA018BE50E94A00281112AC08EEF62
:100700000E948B020DE314E0C0E0F80181918F019B
:100710000E948B02F80131978081EC2FF0E0EE0F00
:10072000FF1FE827E55CFC4FC081F4E00C341F0795
:1007300061F78C2F880F8F5F0E948B028FEF0E94D2
:100740008B028FEF0E948B02CF911F910F910C941F
:1007500063038FEFCF911F910F910895CF93DF9394
:10076000C82F40E050E0BA018AE60E94A002811141
:1007700029C08EEF0E948B028C2F0E948B028091E9
:100780003C040E948B02D0E0C0E080913C048C17B6
:100790001D06B1F0A8F0FE01EB5DFC4F80810E94C8
:1007A0008B022196C11582E0D80779F78FEF0E945E
:1007B0008B028FEF0E948B02DF91CF910C94630329
:1007C0008FEFEDCF8FEFDF91CF9108950F931F93B0
:1007D000CF93DF93109221011092220110922301F6
:1007E0001092240180913B048230F1F44AEA51E0F6
:1007F00060E070E088E40E94A002C1E2D1E08823BA
:1008000031F08FEFDF91CF911F910F9108958FEF0E
:100810000E948B02899381E0C532D807C1F78FEF20
:100820000E948B0280E0EECF40E050E0BA018AE700
:100830000E94A0028111E5CFC1E2D1E005E211E002
:100840008FEF0E948B0289930C171D07C9F7E7CF22
:10085000CF93DF93CDE3D4E0FE01119284E0ED3439
:10086000F807D9F740E050E0BA0189E40E94A002FD
:100870000E9430038E3FA1F0282F082E000C330B6E
:100880003F938F9388E690E09F938F930E94620935
:100890000F900F900F900F908FEFDF91CF910895F1
:1008A0008FEF0E948B02899384E0CD34D807C1F783
:1008B0008FEF0E948B0280E0F0CFCF93C82F8A3059
:1008C00019F48DE00E945D048091C00085FFFCCF8B
:1008D000C093C600CF9108958091C00087FFFCCFE0
:1008E0008091C60008951092C50089E18093C400EC
:1008F000E0ECF0E080818D7F808386E08093C20011
:1009000088E18093C10008958091C00080780895A7
:10091000CF93DF93CDB7DEB761970FB6F894DEBF04
:100920000FBECDBF229A0E94890285B1886285B927
:1009300084B1886284B92C9A83E58CBD5A98529A06
:100940005B98539A87B1887F87B988B1876088B9E7
:100950000E9473048FE091E09093600480935F04A1
:1009600021E031E030935E0420935D0490936204B3
:1009700080936104789484EB94E09F938F930E941A
:10098000620986EA94E09F938F930E94620983E94B
:1009900094E09F938F930E94620982E894E09F9372
:1009A0008F930E9462098CE694E09F938F930E943C
:1009B000620988E594E09F938F930E9462098CE41A
:1009C00094E09F938F930E94620981E494E09F9347
:1009D0008F930E946209EBE3F3E00FB6F894DEBF59
:1009E0000FBECDBF30E020E099E8822F27FD892798
:1009F00047E050E0880F87FD892741505109D1F722
:100A000081932F5F3F4F211581E0380771F728E46C
:100A1000222E21E0322E9FEFE0E7F2E09150E040FD
:100A2000F040E1F700C000000E94840481110FC073
:100A300086B1482F4770473031F510921F01109250
:100A40001E018091000119E082FF36C077C08091BD
:100A50005D0490915E040E94260912E0853771F1D1
:100A600011E08C3659F114E08F3341F115E08237F3
:100A700029F117E0803711F116E08035F9F085345F
:100A8000B9F61AE01BC082FD6CC09091000192FD86
:100A90005FC020911E0130911F012F5F3F4F3093A7
:100AA0001F0120931E01213B310508F43BC0109229
:100AB0001F0110921E011AE0409300018091200155
:100AC000811709F44BC1833009F048C110923B04EF
:100AD0000E9489029AE0E92EF12C8FEF0E948B028E
:100AE00021E0E21AF108C9F780E1E82EF12C40E09C
:100AF00050E0BA0180E40E94A002813009F45CC396
:100B000081E0E81AF10899F789EF93E09F938F93BA
:100B10000E94620960E078ECCB010E943E030F90D6
:100B20000F9057C080FD08C090FF06C010921F01B3
:100B300010921E0116E0C0CF81FF02C013E0BCCFAF
:100B400091FFFCCF10921F0110921E0117E0B4CF4D
:100B500010921F0110921E018370833079F718E004
:100B6000ABCF10921F0110921E018370823031F4BE
:100B70008091000111E080FD9FCFE0CF8130F1F640
:100B80008091000112E081FD97CFD8CF8FEF0E94B6
:100B90008B028FEF0E948B028FEF0E948B028FEFF0
:100BA0000E948B0200E2E02E0EE4F02E40E050E0C6
:100BB00060E070E489EE0E94A002882321F091E0B9
:100BC000E91AF10899F782E080933B048FEF0E94C5
:100BD0008B02143009F0CCC05A985B9880913B048A
:100BE0001F928F938AEE93E09F938F930E946209E6
:100BF0000E94E6030E9428040F900F900F900F9020
:100C00008111AFC0ADE4CA2EA4E0DA2E5601F50181
:100C100011925F01FDE5AF16F4E0BF06C1F740E0B9
:100C200050E0BA018AE40E94A0020E9430038E3F85
:100C300009F097C0FDE4EF2EF4E0FF2E8FEF0E9445
:100C40008B02F70181937F01AE16BF06B9F78FEFD4
:100C50000E948B020E941A03811183C081EE93E0EF
:100C60009F938F930E94620961E2662E61E0762E67
:100C700075E2872E71E0972E0F900F90EBEDAE2E60
:100C8000E3E0BE2EF30181913F011F928F93BF924B
:100C9000AF920E9462090F900F900F900F908614F0
:100CA000970481F782ED93E09F938F930E946209EE
:100CB0003DE3632E34E0732E4DE4842E44E0942E05
:100CC0000F900F905CECA52E53E0B52EF3018191AF
:100CD0003F011F928F93BF92AF920E9462090F90C3
:100CE0000F900F900F908614970481F783EC93E098
:100CF0009F938F930E9462090F900F902DEBA22E6D
:100D000023E0B22EF60181916F011F928F93BF9263
:100D1000AF920E9462090F900F900F900F90EC1409
:100D2000FD0481F70E941A0384E391E09F938F935F
:100D30000E946209809136030F900F9080FD05C0DC
:100D40008BE291E09F938F93AFC184E291E09F93F8
:100D50008F930E9462095A9A0F900F90109320016E
:100D60005ACE87EA93E09F938F930E946209F4CF53
:100D7000113009F044C05A985B9880E893E09F9343
:100D80008F930E9462090E9428040F900F90811196
:100D90002AC080914B04806180934B040E947403AD
:100DA00081110EC00E94E6030E942804811105C033
:100DB0000E9459038AE793E0D6CF86E593E0D3CF2C
:100DC0001F928F938DE393E09F938F930E9462090C
:100DD00060E070E080E095EA0E943E030F900F9083
:100DE0000F900F90BBCF81E293E09F938F930E946F
:100DF000620960E078ECCB010E943E03ADCF123077
:100E000069F55A985B9889EF92E09F938F930E94BF
:100E100062090E9428040F900F9081111CC08091DC
:100E20004B048F7E80934B040E94740381110EC08B
:100E30000E94E6030E942804811105C00E94590304
:100E400083EF92E090CF8FEC92E08DCF1F928F9343
:100E500086EB92E0B9CF8AE992E0C7CF153009F06E
:100E6000D4C085E792E09F938F930E94620940E08F
:100E700050E0BA0181E50E94A0020F900F9081110D
:100E80006DCF0E943003082F85E2A82E81E0B82E96
:100E900095E2E92E93E0F92E65010E3F79F1802F5E
:100EA000807E09F05BCF86E191E09F938F930E9453
:100EB00062090F900F9004FF08C085E091E09F93B6
:100EC0008F930E9462090F900F9003FF08C08BEE72
:100ED00090E09F938F930E9462090F900F9002FF02
:100EE00008C089ED90E09F938F930E9462090F9054
:100EF0000F9001FF33CF88EC90E035CF8FEF0E9449
:100F00008B02F60181936F01EE16FF06B9F78FEFA2
:100F10000E948B028FEF0E948B02198A19828CEA41
:100F200090E09F938F930E9462090F900F90C12CC5
:100F3000D12C760126013701FFE04F22552466248B
:100F400077244114510461047104A9F4FF92EF92D3
:100F5000DF92CF9281E090E08C0F9D1F9F938F9343
:100F6000E0EAF0E0FF93EF930E9462090FB6F89475
:100F7000DEBF0FBECDBFF50180811F928F938AE93E
:100F800090E09F938F930E946209F5010081802E6B
:100F9000912CC4010E941E090F900F900F900F908A
:100FA000892B39F4F0E38F1A91082AE08216910414
:100FB00018F5E1E0F0E0EC0FFD1FE40DF51D0083F6
:100FC0009FEFC91AD90AE90AF90AEFEFAE1ABE0A69
:100FD000C114F2E0DF06E104F10409F0ABCF81E0D7
:100FE00090E08C0F9D1F9F938F9384E990E09F93D7
:100FF0008F930E946209F2CEE1E0F0E0EC0FFD1F5A
:10100000E40DF51D8EE28083DBCF1A3009F050C06D
:10101000E8E5F2E0FF93EF930E9462095A985B982B
:101020000E941A03809136030F900F9080FF38C002
:101030000E94FE0289E492E09F938F930E946209CE
:101040008FEF93EDE0E381509040E040E1F700C086
:1010500000000E941A03809136030F900F9080FFCA
:1010600015C00E94FE028AE392E09F938F930E9434
:101070006209FFEF23ED80E3F15020408040E1F76B
:1010800000C000000E941A030F900F908091360359
:1010900080FF03C08BE192E05ACE85E192E052CE10
:1010A000EEEFF1E0FF93EF930E9462095B9A54CE5A
:1010B000173061F55A985B980E941A0380913603A5
:1010C00080FF5EC083EE91E09F938F930E94620940
:1010D0000E94910282E00E94AE030E941A03809156
:1010E00036030F900F9080FF05C082E00E94AE0390
:1010F0000E941A038091360380FF04C084EC91E0C3
:101100009F9326CE8EEB91E09F931DCE163031F546
:101110005A985B980E941A038091360380FD32C072
:1011200085EA91E09F938F930E9462090E94910249
:1011300081E00E94AE030E941A0384E00E94AE0385
:101140000E941A03809136030F900F9080FD03C018
:1011500084E891E0D9CF8EE791E0D2CF1830A1F4A6
:101160005A985B9886E691E09F938F930E9462095C
:101170000E941A03809136030F900F9080FD02C0E9
:101180005B9AECCD5A9AEACD193009F0E7CD3F923F
:101190002F920E9462090E94E6030E9428040F9089
:1011A0000F90811103C00E945903D8CD60E078EC04
:1011B000CB010E943E03D2CD40E052E060E070E0FF
:1011C00080E50E94A0024AEA51E060E070E088E415
:1011D0000E94A002813009F4D9CC40E050E0BA016D
:1011E0008AE70E94A002813009F0F0CC8FEF0E94C4
:1011F0008B028FEF0E948B028FEF0E948B028FEF8A
:101200000E948B02B0E2EB2EBEE4FB2E40E050E0E9
:10121000BA0181E40E94A002882321F0E1E0EE1AE5
:10122000F108A1F740E052E060E070E080E50E9444
:10123000A00281E0C9CC85FD0C94610B8062911104
:101240000C94610B81568A51D8F70895CF93DF93A0
:10125000EC012B8120FF1AC026FF0CC02F7B2B83B3
:101260008E819F8101969F838E838A8190E0DF919A
:10127000CF91089522FF18C0E881F9818081082E5E
:10128000000C990B009729F420622B838FEF9FEFBE
:10129000EECF3196F983E8832E813F812F5F3F4F58
:1012A0003F832E839927E3CFEA85FB85099597FF36
:1012B000F3CF2B81019621F080E2822B8B83E6CF46
:1012C00080E1FBCFB0E0A0E0E8E6F9E00C94160C7A
:1012D000AE01495F5F4FDA016D917D91AD010DE582
:1012E00014E0F80182819381DC0113962C9113970D
:1012F000286013962C930E948709D8011296ED91CD
:10130000FC912381277F2383E4E00C94320CABE033
:10131000B0E0EDE8F9E00C94080C7C013B018A0197
:10132000FC0117821682838181FFC8C1CE0101961C
:101330005C01F7019381F30193FD859193FF819106
:101340003F01882309F453C1853239F493FD859117
:1013500093FF81913F01853229F4B70190E00E940B
:101360007A0BE7CF912C212C312CFFE1F31538F0CB
:101370008B3211F190F4803209F1833229F137FC7C
:101380003CC020ED280F2A3050F536FE20C08AE000
:10139000989E200D1124922E06C08D3291F080333C
:1013A00071F7689430F8F30193FD859193FF819173
:1013B0003F018111DACF21C0689431F8689432F886
:1013C000F2CF689433F8EFCF689434F8ECCFEAE0CA
:1013D0002E9E200D1124222E689435F8E4CF8E32F3
:1013E00029F436FC04C1689436F8DDCF8C3619F444
:1013F000689437F8D8CF8836B1F2982F9F7D9554EE
:101400009330E0F08336A1F18337C1F1833509F0E1
:1014100063C02801F2E04F0E511CF801C080D1805A
:10142000692D70E036FC02C06FEF7FEFC6010E94AD
:10143000640B4C01689437F882010AC00C5F1F4F9F
:10144000FFE3F98388248394912C6501E89437F8AD
:1014500033FE2DC0522C8114910471F5552009F4EE
:1014600068CFB70180E290E00E947A0B5A94F6CFE1
:10147000F801808189830E5F1F4FE4CF2801F2E0DD
:101480004F0E511CF801C080D180692D70E036FCF0
:1014900002C06FEF7FEFC6010E946F0B4C0182010B
:1014A000D5CFB70180E290E00E947A0B2A942814ED
:1014B000190409F0B0F7CECFF60137FC859137FE5D
:1014C00081916F01B70190E00E947A0B51105A94FC
:1014D000F1E08F1A9108BFCF843619F0893609F0F0
:1014E00077C0F80137FE6BC0608171818281938182
:1014F0000C5F1F4FF32DFF763F2E97FF09C090958D
:101500008095709561957F4F8F4F9F4F689437F806
:101510002AE030E0A5010E94AA0BC82ECA188C2C24
:10152000432C36FE0CC0E89440F8C91440F434FE55
:1015300005C032FC03C0F32DFE7E4F2E892C44FEE5
:1015400095C0FE01EC0DF11D8081803309F087C04C
:10155000242D297E422E842D8870582E43FC95C060
:1015600040FE8FC09C2C821418F42C0C922C9818DE
:1015700044FE91C0B70180E390E00E947A0B42FEE6
:1015800009C088E790E041FE02C088E590E0B7011D
:101590000E947A0BC91408F48AC0CA94D12C9FEF18
:1015A000C91AD90ACA0CDB1CF60182916F01B70176
:1015B00090E00E947A0BAC14BD04B1F74FCF60816C
:1015C0007181072E000C880B990B0E5F1F4F92CF75
:1015D000D32CE894D4F82AE030E0853739F1232D74
:1015E000297FD22E8F3601F148F48835A9F0F70112
:1015F000868197812B96E2E10C94240C803749F088
:101600008837A9F7D4FE02C06894D2F820E130E010
:101610000DC06894D4F8F6CF34FE03C0822F8660E4
:10162000D82E20E132E002C028E030E0F801D7FEF9
:101630000FC060817181828193810C5F1F4FA50172
:101640000E94AA0BC82ECA183D2CE89437F867CF21
:101650006081718190E080E00E5F1F4FF0CF42FC0F
:1016600002C0839478CF8394839475CF842D867839
:1016700009F471CFF6CFB70180E290E00E947A0BB7
:1016800083948214C0F3512C73CF522C58188214B7
:1016900008F46ECFF8CF842D867809F47BCF8BE2E7
:1016A00041FE80E247FC8DE2B70190E071CFB701C7
:1016B00080E390E00E947A0B9A946CCF8FEF9FEFBB
:1016C00099CF992788270895FC01059061507040B3
:1016D0000110D8F7809590958E0F9F1F0895FC01FB
:1016E0006150704001900110D8F7809590958E0F51
:1016F0009F1F08950F931F93CF93DF93182F092FE8
:10170000EB018B8181FD09C01FEF0FEF812F902F1F
:10171000DF91CF911F910F91089582FF14C02E8108
:101720003F818C819D81281739073CF4E881F9813C
:10173000CF0101969983888310838E819F810196C2
:101740009F838E83E3CFE885F985812F0995892BC7
:10175000A1F3DACFFA01AA27283051F1203181F123
:10176000E8946F936E7F6E5F7F4F8F4F9F4FAF4FA9
:10177000B1E03ED0B4E03CD0670F781F891F9A1FBC
:10178000A11D680F791F8A1F911DA11D6A0F711D70
:10179000811D911DA11D20D009F468943F912AE07C
:1017A000269F11243019305D3193DEF6CF01089564
:1017B000462F4770405D4193B3E00FD0C9F7F6CF95
:1017C000462F4F70405D4A3318F0495D31FD40525D
:1017D000419302D0A9F7EACFB4E0A69597958795F3
:1017E00077956795BA95C9F70097610571050895D2
:1017F0009B01AC010A2E069457954795379527957E
:10180000BA95C9F7620F731F841F951FA01D089515
:101810002F923F924F925F926F927F928F929F9200
:10182000AF92BF92CF92DF92EF92FF920F931F93EE
:10183000CF93DF93CDB7DEB7CA1BDB0B0FB6F8949F
:10184000DEBF0FBECDBF09942A88398848885F84DF
:101850006E847D848C849B84AA84B984C884DF8050
:10186000EE80FD800C811B81AA81B981CE0FD11D34
:101870000FB6F894DEBF0FBECDBFED010895F8940A
:02188000FFCF98
:1018820007000000010000000000006C04000000DE
:0E189200000002000000005D040000000000E5
:00000001FF
